:020000041000EA
:1000000000B5324B212058609868022188439860DF
:10001000D860186158612E4B002199600221596106
:100020000121F02299502B49196001219960352056
:1000300000F044F80222904214D00621196600F024
:1000400034F8196E01211966002018661A6600F04E
:100050002CF8196E196E196E052000F02FF8012189
:100060000842F9D1002199601B49196000215960AB
:100070001A491B48016001219960EB211966A021F2
:10008000196600F012F800219960164914480160C1
:100090000121996001BC002800D000471248134993
:1000A000086003C880F30888084703B5996A0420EC
:1000B0000142FBD001200142F8D103BD02B5186610
:1000C0001866FFF7F2FF186E186E02BD00000240BE
:1000D000000000180000070000035F00212200005C
:1000E000F4000018222000A00001001008ED00E03C
:1000F00000000000000000000000000074B24E7A12
:1001000000200420F7010010CB010010CD010010E9
:10011000C9010010C9010010C9010010C901001077
:10012000C9010010C9010010C9010010CF01001061
:10013000C9010010C9010010D1010010D301001045
:10014000C1010010C1010010C1010010C101001067
:10015000C1010010C1010010C1010010C101001057
:10016000C1010010C1010010C1010010C101001047
:10017000C1010010C1010010C1010010C101001037
:10018000C1010010C1010010C1010010C101001027
:10019000C1010010C1010010C1010010C101001017
:1001A000C1010010C1010010C1010010C101001007
:1001B000C1010010C1010010C1010010C1010010F7
:1001C000EFF30580103800BE00BE00BE00BE00BECA
:1001D00000BE00BEF2EB8871C8E50010ECE500102F
:1001E0003802001090A31AE71E481F49086006C88D
:1001F00081F3088810471D480068002801D019487D
:10020000F3E70DA40ECC002902D000F012F8F9E7B4
:100210001749184A002000E001C19142FCD116495B
:100220008847164988471649884700BEFDE701C937
:1002300001C29A42FBD37047ECE50010C0000020D9
:10024000F817002024FD0010000004200000042006
:1002500024FD001000100420001004200000000005
:10026000704700000000000008ED00E0000000D032
:10027000F817002038290020B55100105503001050
:1002800075510010F8B5C04606480749091A8B1089
:10029000C90FC91810B5491003D0044B002B00D06A
:1002A000984710BDF8170020F81700200000000044
:1002B000054B10B5002B03D00449054800E000BFF2
:1002C000FFF7E2FF10BDC04600000000302800200C
:1002D0009CD6001030B5E12185B06C461123102268
:1002E0000D48490200F064FC0C4D200000F092FC27
:1002F0000028FAD0237B092BF7D000F0F9FD2870F5
:1003000000F00CFE200000F0ADFD200000F082FCAB
:100310000028EAD0EEE7C046004003403029002024
:1003200010B505F053F80949094807F08FFC012181
:10033000102000F02FFE0121122000F02BFE0121E1
:10034000132000F027FE0AF027F810BD80969800D1
:1003500000C00340F0B5DE4657464E464546E0B580
:10036000D94DB9B004AF05F031F82800D74907F0EE
:1003700027FD01210400280007F006FDA422002328
:10038000BA18136098468022F823982152025B0223
:1003900079180A604B60C023A0221B03BA181360AF
:1003A00078212023060038205B18D919203BC31878
:1003B0001022D81903F024FA231DE2011B03134372
:1003C000B422BA18136038207823C318D9194030E2
:1003D000903B1B181022D81903F012FAF023A42224
:1003E000DB02BA1813604246012331002800009254
:1003F0000F3207F061FD06210F2000F0CBFD062132
:10040000102000F0C7FD782220239B182200012431
:1004100031002800DB1907F0A9FD2300B3402A684A
:1004200013432B60FFF77CFF09F044FE002009F026
:1004300029FBA74BD0259A46186800F0C5FD534606
:1004400022001B682D069A4053466A62586800F0E5
:10045000BBFD534622005B689A4053466A62986827
:1004600000F0B2FD534622009B689A4053466A62F0
:10047000D86800F0A9FD53462200DB689A40534635
:100480006A62186900F0A0FD534622001B699A4079
:1004900053466A62586900F097FD534622005B6933
:1004A0009A4053466A62986900F08EFD53462200D6
:1004B0009B699A4053466A62D86900F085FD5346AD
:1004C0002200DB699A4053466A62186A00F07CFD9C
:1004D000534622001B6A9A4053466A62586A00F0EB
:1004E00073FD534622005B6A9A4053466A62986ADB
:1004F00000F06AFD534622009B6A9A4053466A62A6
:10050000D86A00F061FD53462200DB6A9A40714BC5
:100510006A62FB621B6899466F4B48467B611B68A9
:10052000984600F051FD4A462300934040466B62D6
:1005300000F04AFD43469C4064206C6201F0DAFB07
:10054000664807F0C7FD01F0EBFC002900D112E37B
:10055000FA220023920002F0C5F9614BFB65186096
:1005600001F0DEFC002900D100E3FA220023920012
:1005700002F0B8F9D0245B4B24061860C82001F0C3
:10058000B9FB594B594D98461B685948A3612B68D4
:10059000636101F0AFFB2B685548A36143461B68BC
:1005A000636101F0A7FB43461B687821A3612B68B8
:1005B000A361B3007B624F4B3B614F4BFB604F4BE2
:1005C000BB604F4B7B604F4BBB654F4BFB634F4B4F
:1005D000BB634F4B7B654F4B7B634F4B3B654F4B37
:1005E000FB644F4BBB624F4B3B624F4B3B674F4AE9
:1005F0004F4B93464F4AFB66FA614F4A4F4BBA61E5
:1006000010225218D6194E4ABA644E4A7A644E4A9B
:100610003A634E4A3A6452469A467A662A4B7C6A54
:100620009C466444236A3D690A202B6001F062FB0A
:10063000236AFA6828681360C01ABB68002518602E
:1006400002F0F0FB424A434B02F05BFB02F02AFC53
:100650007C6823232060A0220A210020009509F055
:1006600087FC782023681021BA6D381804F01AFD31
:1006700001237822052114200193BA18364B0095E6
:1006800009F0A2FC23686A46D800C01A334B8000E8
:100690009C46334960443A6602F0E6F82023181A73
:1006A000041C80B2202800D85AE12024A0B004AB5A
:1006B0009846A446002301210125444660461818A7
:1006C000E21880B251E0C0460000205004DB001068
:1006D000401000203410002030100020D5020010FF
:1006E000841B0020881B0020381000203C100020B4
:1006F00010270000901B0020941B00208C1B002062
:10070000801B0020A8D6001026290020ACD600109F
:10071000B4D60010BCD600100829002036290020CD
:10072000E0DA00100C2900203329002020280020C6
:1007300022290020FCDA0010302900202429002082
:10074000C0D60010C8DA0010A0D60010C8D600101D
:100750007B14AE47E17A843FFFFF0000804A28F90E
:10076000E09304000132802B08D001339BB211705A
:100770009842F7D16940C9B2802B9FD121780020DF
:100780004B425941132349429943DC4A283109F02D
:1007900009FC0123A0465B42434499465346012588
:1007A000BB664A46EBB29A464346525D5B5D002A01
:1007B00000D0CAE0002B14D07B672B0028245546BC
:1007C0009A462100013C2800CC4AE4B209F0EAFB39
:1007D000132CF6D152467B6FAA461500002B00D091
:1007E000B6E014215046C54A013509F0DBFB802DE7
:1007F000D7D1BB6E9A463B6E9D46FB6D1C6801F0DF
:100800008FFB002900D0A5E0FA21890002F02CF826
:10081000BB4B1021E3181B1A7820BA6D381804F06E
:1008200041FCFB6B1B78002B00D14CE17823FB18BB
:100830000093BB6B38207824001920217A6DC019F1
:1008400004F030FC01237821382201930023521850
:1008500000200093D219A94B463909F0B5FB01F0ED
:100860005FFB002900D1F3E0FA220023920002F09E
:1008700039F8FA22920094463B6D04001B686344E9
:10088000A3420FD2F2E073783A6FF96E1370728858
:100890000A805146B2880A805946B2680A605A1ED8
:1008A000042A63D9300000F0F9FA0028EBD100F0F7
:1008B000ABF9040001F034FB002900D1C3E0FA22B7
:1008C0000023920002F00EF8002C00D1A5E0FA23DC
:1008D000001B9B00984200D39FE03B6F3C6B1B7852
:1008E000013BDBB2052B02D87A6C9B00D4585B46E7
:1008F000186802F00DFF53460290039100229B5EA0
:1009000020200193FB6E182100229B5E00932300A0
:10091000782400193A6CC01904F0C4FB0023A0220B
:10092000009341210A33002009F022FBFC23DB0065
:1009300001220192002278210092203252180020D8
:10094000D219373909F040FB68E6002B00D133E7B4
:10095000282147E7FA220023920001F0C3FF57E75E
:10096000A4B2042C00D3A1E604249FE601221000C7
:100970007969096888400100F86A006882409046F9
:10098000012B00D1B5E0032B00D1AEE0022B00D14A
:10099000C0E0FA20404281465A4A5A439144D02549
:1009A00000242D0669617B674346FA2000216B61B4
:1009B000400001F029F94346FA200021AB614000D4
:1009C000013401F021F9A145EED17B6FFA694C4861
:1009D000D45C7A6E013CE3009946012398464B466D
:1009E0004146D3584C469940A961414604341359B5
:1009F0007A669940696101F07DF94B4641467A6E0D
:100A0000D3589940135942469A406961AA61BB691B
:100A10001878C0B200F0A0FA44E79821BA6C7918AF
:100A2000136800200B601379782124225218D21900
:100A300013700023A022009337390A3309F098FA83
:100A4000F8231B0274E7FA21890001F00DFF3BE750
:100A5000FA21890001F008FFFA22920094463B6DCA
:100A600004001B686344A34200D31BE7FB6CBA6A13
:100A70001B7898469B00D0580578002D19D00D2181
:100A80003B6A894600229B5E002120229C461E4B29
:100A900000291DD1AC4522D099690A42FCD11D60C4
:100AA000017801300D394D4269410578C9B2002DF8
:100AB000EED140460721013001F0AEFEFB6C19700B
:100AC0003B6D1C60EEE67823FB1800937B6BB1E670
:100AD00099690A42E3D099690A42F9D1DFE7996935
:100AE0000A42FCD149461960D6E7084B99460423CF
:100AF00055E7074B9946032351E7C046FFFF000027
:100B0000102700001A040000004003406E0F000090
:100B1000540B0000D0241A4D240661614346FA208C
:100B200000216361400001F06FF84346FA20002184
:100B3000A3614000013D01F067F8002DEED10135C1
:100B400029007A6E0F4813699940A1612900536901
:100B50007A669940616101F0CDF829007A6E1369D7
:100B60009940536961619D40A56150E7FA21890070
:100B700001F07AFEFEE4FA21890001F075FEECE452
:100B80003A070000204E000070B505680400002DF3
:100B900009D02C2128000BF08BF8002805D0002369
:100BA000037001302060280070BD2060FBE7C04664
:100BB00070B5160000221D000400104B1860104B89
:100BC0001A6001F0FBF93000022100F0E3F928007F
:100BD000022100F0DFF9002301222000082101F0AA
:100BE0007DFA2000012101F0B5FAC022236B120228
:100BF0001340044A94466444236070BDF4280020E6
:100C0000F028002030100000014B18687047C046E3
:100C1000EC280020F0B5DE4657464E464546E0B586
:100C20008A4B95B01A00019300231360884B8146CC
:100C30001F68884B002410259B462E00BB691E4070
:100C40001D42FAD13B68DBB20D2BF6D00A2B09D03E
:100C50003F2C00D1ECE00199621C0A6059460B550B
:100C60001400EAE75B462200594604A81E5502F02C
:100C7000C7FD082202AB9B181E55002CDDD05B4639
:100C80001B78002B0AD100230020019A136015B0B5
:100C9000F0BCBB46B246A946A046F0BD2C21584642
:100CA0000BF006F880460028EDD0012343449A4615
:100CB0005B46524606701B7802924D2BE3D15B4691
:100CC0005B789B46002BDED12C2150460AF0F0FFCA
:100CD000051E02D05B460135037043465B780295E2
:100CE000002BD0D00A22504603A90AF0D5FF039B5F
:100CF0001B789846002BC6D1431E052BC3D8C3B220
:100D00001E00002DBFD02C2128000AF0D1FF0028A2
:100D100002D04346037001302B780290002BB2D0F2
:100D20000A22280003A90AF0B7FF039B83461B7819
:100D3000002BA8D1802380271B025B447F02BB428B
:100D4000A1D202A8FFF720FF00289CD00378002B37
:100D500099D00A2203A90AF09FFF039B82461B78C1
:100D6000002B00D08FE780231B025344BB4200D3EB
:100D700089E702A8FFF708FF002800D183E703787E
:100D8000002B00D17FE703A90AF070FE039B804689
:100D90001B78002B00D076E7002102F099FC002898
:100DA00000D070E7FE214046890502F09FFC002834
:100DB00000D068E702A8FFF7E7FE002800D162E74D
:100DC0000378002B00D15EE70A2203A90AF064FF32
:100DD000039B1B78002B00D055E7FF2800D952E772
:100DE000029F002F00D04EE74A4601331370567021
:100DF0004B465A465A8052469A804246164D9A6051
:100E00001873019B2200280004A91F6002F0F8FC5F
:100E1000124B2F551C6001F083F8002911D0FA22E3
:100E20000023920001F05EFD0D4B186001202EE7BB
:100E30001022BB691A42FCD13B68DBB20A2BF8D105
:100E400021E7FA21890001F00FFDEDE7F0280020ED
:100E5000F428002068280020A8280020E828002086
:100E6000EC280020010030B5047B437824061C43A5
:100E7000438883B01B021C4304220831858801A8E3
:100E800002F0BEFC200007F0C7F8280007F0C4F805
:100E9000019807F0C1F803B030BDC046F0B5012697
:100EA000C646D023370000B51B061B6D040082B078
:100EB0001F401E4216D007F0B9F8050007F0B6F83B
:100EC000804607F0B3F82B0A019063802000434668
:100ED00065702D0E042226702573A380083001A9A9
:100EE00002F08EFC380002B080BCB846F0BDC046AF
:100EF000084B196800290AD00020074BC9181A7836
:100F00000A2A03D0013350408B42F8D170470020A9
:100F1000FCE7C046E8280020A828002010B50C4CAB
:100F20000300226882B0002A10D00821094A6846CE
:100F300004F0B8F8684620212268441D93691942DC
:100F4000FCD1037801301360A042F7D102B010BD8C
:100F5000F4280020ACD7001010B50C4C0300226818
:100F600082B0002A10D00821094A684604F09AF895
:100F7000684620212268441D93691942FCD10378F8
:100F800001301360A042F7D102B010BDF428002058
:100F9000B4D70010094A83009A1810B5146840228B
:100FA000544080322240064CC000A44663441A607C
:100FB000044B9C466044416010BDC04604C00140E3
:100FC00004D00140004001400123D022834012069A
:100FD00093629361094A83009A1811684022514034
:100FE00080320A400649C0008C4663441A60054BB3
:100FF0009C460523604443607047C04604C00140DE
:1010000004D00140004001408023DB051868000F38
:101010007047C0460FB400B5084883B004F024FA06
:10102000049B002B07D005A91800019104F06EF86D
:10103000034804F019FA012004F080F8BCD700102E
:10104000CCD70010EFF3108072B6034A1368002B60
:10105000FCD0BFF35F8F70472C0100D0BFF35F8FD0
:101060000022024B1A6080F3108870472C0100D0D8
:1010700070B5EFF3108C72B60D4D2B68002BFCD0C1
:10108000BFF35F8F0724CB08C618C05C01230C4058
:10109000A3401C000440034207D118433070BFF343
:1010A0005F8F2C608CF3108870BD1000FFF7B2FFCB
:1010B0002C0100D0F8B54746CE46884680B5EFF300
:1010C000108C72B61C4D2C68002CFCD0BFF35F8FC7
:1010D0009A4222D807210126894602E00132934232
:1010E00018D34D4637001540AF40D4080119045DB0
:1010F0002742F3D110003C430C70BFF35F8F0022F6
:101100000D4B1A608CF3108800280EDBC0BCB9466A
:10111000B046F8BD01204042EFE7BFF35F8F0023E8
:101120002B608CF31088012040424346002BEDD009
:101130000898FFF76FFFC0462C0100D0044A1078D2
:10114000431CDBB2172B00D9102313707047C04625
:101150006C10002010B5064B064C82B001000093C5
:1011600018221F232000FFF7A5FF02B010BDC046C4
:10117000D0D70010B02300200021044B044ABFF355
:101180005F8F02C39342FAD17047C046000100D07E
:10119000800100D0054B064A1360064A1360536075
:1011A0009360D36013615361936170478080808046
:1011B00000E400E004E400E01F2318401E3B8340ED
:1011C000002905D0C021044A4900535013607047DC
:1011D000802201498B50FAE700E100E001228240C1
:1011E000034B1B6813405A1E9341D8B27047C04648
:1011F00000E100E001238340014A13607047C046CC
:1012000000E200E0064B10309B688000C358054A9E
:1012100000209B1A2F229A424041C0B27047C0461C
:1012200000ED00E07010002070B50D00EFF31086A7
:1012300072B60F4A1368002BFCD0BFF35F8F0D4BC3
:1012400010309B6884001B590B4A934203D09D4287
:1012500001D001F0A3F9074B9B681D51BFF35F8FCD
:10126000BFF35F8F0022024B1A6086F3108870BDB7
:10127000240100D000ED00E0C1010010F0B5574698
:101280004E46DE464546E0B585B0060000911700A3
:10129000EFF3108B72B66A4A1368002BFCD0BFF3D1
:1012A0005F8F0025674B5D579A46002D00DAA9E055
:1012B0006B00654C01935B199B009846A146C144A5
:1012C0004B4652469B7910361370604BB6009B68B4
:1012D00099590B1B2F2B33D95D4B994200D0ACE0B1
:1012E000019B42469C465B4B6544AD0063535A4BA1
:1012F0000232A218043B9B1A1B05584A5B0D651964
:1013000013436B80564B0121AB80FF23AB71009BD5
:10131000EF71AB604B460B4319004C4B9B689951E6
:10132000BFF35F8FBFF35F8F0022454B1A608BF3D3
:10133000108805B0F0BCBB46B246A946A046F0BD39
:1013400001200A008243D3798C46BB4231D84546FE
:10135000130044491B1B5B415943090D3D4B63532B
:101360003D4B02356519043B5B1B1B053B4D5B0D7B
:101370002B43AA464D466B800425AC465546E044B7
:10138000131F44441B1B1B055B0D1D434B469971EA
:1013900000999D8099604946DF71334B014313608A
:1013A000BBE75800C01880002018C179B9422FD976
:1013B00002000623D356002BF3DA02932B4B61462F
:1013C0000393131D9A4604235B429C46E144504616
:1013D0004B461B1A1B055B0D9C46204B957198468E
:1013E0006346404603439380019B5A199200039B36
:1013F000A418A380029B1C4AA371009B2260E77182
:10140000A3608AE701F0CAF8002553465D574FE70D
:10141000908802934005131D9A46031561469C4629
:101420004046D444634604302018181AE0230005CF
:10143000400D1B0218430390C5E701F0AFF84FE7DA
:10144000240100D0312900207010002000ED00E0C0
:10145000C101001000A1FFFFA010002000E0FFFF6D
:1014600001BDFFFFAAAA00000148804701BD00009E
:1014700070B501240443EFF30581EFF3108C72B6CD
:10148000214A1368002BFCD0BFF35F8F1F4B050070
:101490001F4AED1A6D416A43120D1E4D8900AE6858
:1014A00052B27658A6421CD00621595691421CD001
:1014B00012215956914222D01E215956914220D0D4
:1014C0002A2159560324914210D0134B19781A70CF
:1014D0008171BFF35F8F00220B4B1A608CF3108871
:1014E00070BDAB680D4C5C50EFE70024610009193A
:1014F00089005B18FF21997109499980E5E701246A
:10150000F4E70224F2E7C046240100D07010002066
:10151000AAAA000000ED00E031290020C10100105E
:1015200001BDFFFF10B5084B084C82B001000093CD
:10153000002205232000FFF7BDFD002801DB1F234B
:10154000181A02B010BDC046ECD700103729002091
:10155000024B9C46614489000160704740000034A2
:1015600070B5114C114DAC420FD2FF262368002BF1
:101570000CD0FFF7E3FD01002000FFF7E9FFA68094
:10158000BFF35F8F0834AC42F0D370BDFFF7D6FDD8
:1015900001002000FFF7DCFF2671BFF35F8F0834E6
:1015A000AC42E3D3F1E7C046E8170020F81700206B
:1015B00010B50400FFF7C2FD01002000FFF7C8FFCF
:1015C000FF232371BFF35F8F10BDC04610B5040029
:1015D0000120FFF7BFFD034BC3189B002360BFF33F
:1015E0005F8F10BD40000034034B9C46614489006E
:1015F0000160BFF35F8F7047400000340A4B1968E9
:10160000EFF3108072B60A68002AFCD0BFF35F8F38
:101610001B68BFF35F8F00221A6080F3108840BF01
:10162000002000217047C046FC280020F0B5DE46AF
:1016300057464E464546E0B587B0EFF30583032293
:1016400001251A40954091008846A946B34B039264
:101650005C58B34B1D60B34B04934B46B248436395
:101660000823E55E002D37DAA3881BB2002B00DBD0
:10167000ADE0A379002B00D0EEE00823E05E002867
:1016800020DB430062691B18DB00D3189E68DD680D
:10169000731C00D111E1A44801004144826A0B6926
:1016A000B71A9B1A9F4215D30123026A03988340FD
:1016B0001A420FD09C4800F02BFC8D4202DCCCD1AA
:1016C0008642CAD940BF07B0F0BCBB46B246A94665
:1016D000A046F0BD0E61EDE762696B0092465B19B2
:1016E000DB009A4453469E68DF6800F011FC8F428D
:1016F000BADC00D103E1002F00DAE8E0524653469D
:1017000052691B699346049A934200D1D9E052462C
:101710000821605E528800045946104398470090A3
:1017200001910099019A0B001000134300D1CEE003
:1017300013000A00B61A9F41002806DB7A4800F021
:10174000E7FB009E019F36184F4153469E60DF60C5
:1017500000229A5E002A00DA86E753009918606931
:10176000C900411802938B68C9689B46B94200DDE5
:101770007AE702D1B34200D976E708239C46A44415
:10178000059565462281A446029B2C0006E0530085
:101790009918C90041188D68C968AB469B18DB00D1
:1017A000C318B94206DC00D1B3E01C000023E25E9E
:1017B000002AECDA230064469C4653461A806346AE
:1017C000059D1D80A3881BB2002B00DA51E722691A
:1017D000EFF3108172B61368002BFCD0BFF35F8F5C
:1017E0000123A7885B42A3803FB22369BFF35F8FC9
:1017F00000221A6081F31088002F00DA39E72300F5
:10180000083322009A4666697B00DB19DB00F31877
:10181000996850468C460824115FDD68002910DB6A
:10182000029306E0AB4244D00023E15E2000002991
:1018300006DB4C006418E4003419E368AB42F1DDC8
:10184000029B078000201F5E1980002FDCDA140045
:10185000A379002B00D110E70023A37126000823F1
:10186000E15E08364B1C00D12CE70800A2466569F2
:1018700002E03E004B1C1AD04B005B18DB00EF1857
:101880000A008C46E95E7B881BB2002BF1DA01234B
:101890005B42DC17BB60FC60824205D0534631805E
:1018A0001B893B8053461A8160464B1CE4D1544649
:1018B000E5E6A3686345B7D9C2E76B1C00D0EAE64A
:1018C000F8E65B4658461B69984700281BD15346EB
:1018D0001B8822692381EFF3108372B611680029F7
:1018E000FCD0BFF35F8F514662880A802269658011
:1018F000BFF35F8F0021116083F31088B4E6864246
:1019000000D8F8E6B0E65B461A685B68009201937F
:1019100007E7B34500D848E74CE7C0465028002009
:101920003C7005402D1600100040054070B52E4C4F
:101930002569002D04D00A212C48FFF709FE70BD4F
:101940002B4E0321300000F0D9FAE660FFF7F6FBDA
:10195000284B03229C46D02322701B061B680121C2
:101960006370254B6044A3600F2380002061022038
:10197000638063694942A180198002311986473129
:101980001D83585218315A5275325C3999521832A7
:10199000013199521832013199521832013199525C
:1019A000083518329D5202311832995218320131DD
:1019B0009952183201319952183201319952183224
:1019C000013199521832013199520C4B0C49DC60AB
:1019D00001303562FFF728FC01210320FFF7ECFB03
:1019E000084B1D60A7E7C046B8100020FC28002067
:1019F0000040054040000034FFFF10005028002048
:101A00002D1600103860054000487047B8100020BF
:101A1000F8B51F0008AB1B7804001600002B08D196
:101A200000F07EFA32003B00121A8B41002B00DAE4
:101A300052E02269EFF3108072B61368002BFCD0DD
:101A4000BFF35F8F0223E15E63694A005218D20040
:101A50009B182269002936DB1D886580BFF35F8FE4
:101A60000025156080F31088069A9E60DF601A6179
:101A7000079A5A615A8801325204520C101C002AEB
:101A80001FD082B25880080410432669EFF31087F4
:101A900072B63268002AFCD0BFF35F8FA2881A802A
:101AA000A1802369BFF35F8F00221A6087F310883B
:101AB0000A4923788C4601329A40E36863441A60ED
:101AC000F8BD0120DDE7BFF35F8F0023136080F3D3
:101AD000108801204042F3E70020F1E73C2000009D
:101AE00070B501000469EFF3108C72B6206800280D
:101AF000FCD0BFF35F8F02200D5E4C696800401977
:101B0000C00024180869002D36DB26884E80BFF3FC
:101B10005F8F002606608CF31088E360638804986A
:101B2000013320615B0405985B0CA26060611A1CA4
:101B3000002B1FD093B22804628018430A69EFF388
:101B4000108C72B61368002BFCD0BFF35F8F8B88AC
:101B500023808D800B69BFF35F8F00221A608CF3A6
:101B600010880B7801329A40CB6808498C46634450
:101B70001A6070BD0122DDE7BFF35F8F00230360B1
:101B80008CF3108801204042F3E7C0463C2000005F
:101B900010B543890A1493421ADD53009B18426919
:101BA000DB00D3180469EFF3108C72B62268002AA8
:101BB000FCD0BFF35F8F5A88090494B2090C8A42A3
:101BC00008D00369BFF35F8F00221A608CF310887E
:101BD000002010BD8022120214435C8001230269A0
:101BE0008371BFF35F8F002111608CF3108804496B
:101BF00002788C469340C268012062441360E8E793
:101C00003C20000040787047F0B5C64600B582B071
:101C100004000D0000F084F924184D41002D02DA73
:101C200001242F4D644206267642F71736196F417C
:101C3000AF4214D811D000F073F932003B00121AF1
:101C40008B41002B15DC002B46D02000290000F032
:101C5000A5F902B080BCB846F0BDA642EBD900267B
:101C6000002700F05DF932003B00121A8B41002B77
:101C7000E9DD00F055F932003B00121A8B41002BD0
:101C80000ADB00230193174B3200009316483B00F8
:101C9000FFF726FF0130D8D000233900B0469C461C
:101CA000124A1348536A994204D8966A4645CCD2E0
:101CB0009942CAD10668EFF3108772B63368002BD9
:101CC000FCD0BFF35F8F0368BFF35F8F66461E6073
:101CD00087F3108820BFE5E7002AB6D0C9E7C046E1
:101CE000FFFFFF7FFD150010B810002000400540E9
:101CF000FC280020F0B5C64600B582B0040000F014
:101D00000FF9FA2206000F002000002300219200A4
:101D100001F09CFC8019794104000D1E02DA0124B7
:101D20002E4D644206267642F71736196F41AF42B0
:101D300014D811D000F0F4F832003B00121A8B4195
:101D4000002B15DC002B46D02000290000F026F9DE
:101D500002B080BCB846F0BDA642EBD900260027F1
:101D600000F0DEF832003B00121A8B41002BE9DD57
:101D700000F0D6F832003B00121A8B41002B0ADB30
:101D800000230193164B3200009316483B00FFF7E7
:101D9000A7FE0130D8D000233900B0469C46124A35
:101DA0001248536A994204D8966A4645CCD2994261
:101DB000CAD10668EFF3108772B63368002BFCD0E7
:101DC000BFF35F8F0368BFF35F8F66461E6087F3C4
:101DD000108820BFE5E7002AB6D0C9E7FFFFFF7FE4
:101DE000FD150010B810002000400540FC28002020
:101DF000F0B557464E46DE464546E0B506000F00B4
:101E000085B0EFF3058399468B46002B12D03849F5
:101E100000204B6ABB4206D38A6ADB1B591E8B41EA
:101E2000B2424041184305B0F0BCBB46B246A94699
:101E3000A046F0BD2F4B9A46DB68984653461B7868
:101E40004046039300F064F84246039B04000433C9
:101E50009B009B580D001B1A39003000001BA94144
:101E6000894510DC0DD020BF214A0020536A5B4514
:101E7000D9D3926ADB1B591E8B41B24240411843B1
:101E8000D1E78342EFD900F04BF832003B00121A41
:101E90008B41002B1ADB00230193174B3200009378
:101EA00050463B00FFF71CFE011E0FDD104B5A6A27
:101EB0005A451BD39B6AB34216D35046FFF768FEC0
:101EC0000B4A0020536A5B45ADD3D2E7084A002095
:101ED000536A5B45A7D30020926ADB1BB2424041A4
:101EE0005A1E934118439EE75A45E6D120BFE4E7C6
:101EF00000400540B8100020FD15001010B5024A42
:101F00000248FFF7B5F810BD08D80010B423002030
:101F10000300416A0A00986A596A8A42FAD17047F6
:101F2000034B596A0A00986A596A9142FAD170477C
:101F30000040054070B504000D00174A536A1900AF
:101F4000966A536A8B42FAD13000190024184D4129
:101F5000AB4216D813D0104B2A005B6A9D4203D9BE
:101F60000D494B6A9342FCD3934207D10A4A02E0DF
:101F7000516A994202D1916AA142F9D370BDA64239
:101F8000E9D9054B5B6A1C005A1CEFD001220124E1
:101F90006442E5175242E3E700400540064A536AAF
:101FA0009942FCD807D1044B02E05A6A914202D10F
:101FB0009A6A9042F9D8704700400540F8B504008D
:101FC00006200D0000F0E2F9002844D0374B3849D4
:101FD000E3185A1E93418022120494465B429B0DE3
:101FE000344A9B0563441360334A136018000A683F
:101FF0009043FBD12D4B314AE31859424B4180218C
:102000005B0049000620995200F0C0F92900C00089
:1020100000F02AFC0130C3091ED140270122626270
:10202000A362266BF30722D4E36A254B0620E5184A
:1020300000232B60266300F0A9F93900800000F02E
:1020400013FC7023E26A5A400E3313402B601D4B81
:1020500023630323A364F8BD1B4A93421ED90023C4
:102060001A4A1B4F6262A362266BF307DCD5194B39
:10207000144AE3181A60656AA36A0620AD01ED18D8
:1020800000F084F9144900F0EFFBAD0201002800D4
:1020900000F0EAFB0021FFF74DFFC5E74006800E88
:1020A0009F011A003F180300B9E7C0460080FCBF3B
:1020B00008C0004000E0004000F000400C29002073
:1020C0002C10000001030000FEFF0000FFFF0000D5
:1020D000C0FF3F00303000004E0E00000539013ACD
:1020E000F8B5D2004C0105001443002B06D0013B8B
:1020F0005A4253419B00234302241C432E6BF30797
:1021000008D46E23EA6A624013400E4AAA1813608C
:102110002E63F8BD0C4B0D4AEB181A606F6AAB6A60
:102120000620BF01FF1800F031F9094900F09CFBBF
:10213000BF020100380000F097FB0021FFF7FAFE14
:10214000DFE7C0462C100000303000000103000023
:102150004E0E0000F8B5066B04000D01F30708D41D
:10216000E36A5D4010231D400D4BE3181D6026639C
:10217000F8BD0C4B0C4AC3181A60476A836ABF014A
:102180000620FF1800F002F9084900F06DFBBF02BD
:102190000100380000F068FB0021FFF7CBFEDFE70D
:1021A0002C10000030300000010300004E0E000033
:1021B000F8B5DE464E4657464546E0B58B46050027
:1021C0000A991800160000F04FFB0A9B6C001F02D2
:1021D000324B64199C46A4006444636881469F4264
:1021E00000D967602B1FDBB29846012B30D9C02382
:1021F00080229B01E31812011A60294BAD00595946
:102200009A4600291BD17301E026226853401E40E4
:10221000802342465B01E3181E60012A30D98023E7
:1022200080229B01E31812011A6053464A466760F8
:102230005A51F0BCBB46B246A946A046F8BD586903
:1022400000F012FB013043001B18033BFDD2DAE71C
:102250005B46012BCBD1C02303229B01E3181A60FC
:10226000023AA3681A42FCD07301E0262268AD004E
:1022700053401E4080230A4A5B019246E3181E60C9
:102280005A462168514003220A401A6001225B46E7
:102290009A40A3681A42FCD0C1E7C04600800040C3
:1022A000BC230020F0B546464F46D646C0B51F00B9
:1022B000344B44009C462418A40064446368884658
:1022C0001600FF2B02D880235B006360031FDBB284
:1022D0009A46012B30D9C02380229B01E3181201BA
:1022E0001A60294B85005959994600291BD1730161
:1022F000E026226853401E40802352465B01E318CB
:102300001E60012A30D9802380229B01E31812012C
:102310001A6080235B0063604B465F51E0BCBA46A5
:10232000B146A846F0BD586900F09EFA013043005E
:102330001B18033BFDD2DAE74346012BCBD1C02368
:1023400003229B01E3181A60023AA3681A42FCD0E8
:102350007301E0262268850053401E4080230A4A0C
:102360005B019146E3181E604246216851400322FA
:102370000A401A60012342469340A2681342FCD0EF
:10238000C1E7C04600800040BC230020014B800014
:10239000C0587047BC230020F8B5040021481E0037
:1023A00017000D0000F060FA0100380000F05CFA40
:1023B000069B36041B031E432368002B20DB1A4BAD
:1023C0001A49E3185A1E93418022920194465B42B7
:1023D0001B0B174A1B0363441360164A13601F004C
:1023E0000A689743FBD1144B2560E2182123A060B3
:1023F00013602368002BFCDA0823E6601360F8BD45
:102400003F2322681340AB42D9D1A3681B051B0DA3
:102410008342D4D1EE22E368D2021340B342CED13C
:10242000EDE7C046001BB7000040FDBF08C00040FC
:1024300000E0004000F000400430000010B58024AF
:102440001C4BE4051C6000281AD001231A4C1843C9
:102450001A4BDC611A4C44401C625962986280211C
:10246000144BC9051960174817490860E021C904D1
:102470001960002A07D18022144B12061A6010BD81
:102480000E4BD861EBE753019B1A9B009A188023EF
:1024900012015B049A4209D213000D490B60074BED
:1024A0005A608022094BD2051A60E8E7094B1A00EE
:1024B000F3E7C04600B00540D3C007B00080054038
:1024C0002D3FF84FFCFF01000820014000A005400F
:1024D00028280020FFFFFF008023024A9B000B43B7
:1024E000D362704700800540002310B50100988A30
:1024F0001B8B984710BDC046162310B501001888E5
:1025000002331B88984710BDF8B54746CE4680B5C4
:102510000F1E18D014239946043304000025012609
:1025200098464B461888434621681B88984701C443
:10253000431E984101350640AF42F2D13000C0BC85
:10254000B946B046F8BD0126F8E7C046002370B58D
:1025500004000D00988A05491B8B98470300002052
:10256000002C01DB0130A0402900984755420000B3
:10257000AA23064A1B0113608D235B00D360044924
:10258000044B19605368002BFCDA7047004002408E
:1025900000B0FA00006002407047C04610B5014824
:1025A000FEF738FD2CD8001070B5074D074EB54228
:1025B00009D20024013E761BB60808CD98472300B7
:1025C0000134B342F9D170BD58D6001094D6001032
:1025D00070B5074D074EB54209D20024013E761B67
:1025E000B60808CD984723000134B342F9D170BD35
:1025F0008CD6001094D60010054B064A06491A6086
:10260000064A074B1A6010000B689843FBD17047CD
:1026100000E00040BFCDFBFE08C00040FE7F3C0054
:1026200000F00040044BDB6C002B03D18022034BF5
:10263000D2021A607047C046000011504C20115061
:10264000044A054B1A60054A1368DB018033FBD14D
:102650007047C046FFFFFF0100F0004008C0004087
:102660004022034B9A675A671A67DA667047C0467A
:1026700000F0014010B5FEF77FFD10BDF8B5274909
:10268000274C284D641AA6103200302E00D9302273
:102690002800920001F0B4F8BC2C3BD830202F2346
:1026A0002C196407204A801BE40F9B1B052B16D9AD
:1026B0003700002C02D0B300771CEA50001B3319FE
:1026C0009B004108EB18C900C9181A605A6008330A
:1026D0009942FAD1012303421CD09843C619B30092
:1026E000EA50731C2F2E15D09B00EA50B31C2E2EDF
:1026F00010D09B00EA50F31C2D2E0BD09B00EA500B
:10270000331D2C2E06D09B00EA50731D2B2E01D0BA
:102710009B00EA50054B9D60F8BDC04600010010CB
:10272000C001001000000020C101001000ED00E019
:10273000002310B5294C82B0A367FFF719FF0122CF
:10274000274B1A60636C012BFCD10322254B1A60C6
:10275000224A936B012BFCD1013300930121224AC1
:1027600022480433FFF718FE052301210093204A75
:102770002048FFF711FE0022022104201E4BFFF724
:1027800091FD0022012105201C4BFFF78BFD00224B
:10279000002107201A4BFFF785FD002200210820A9
:1027A000174BFFF77FFD8023DB0000930022002101
:1027B0000920134BFFF7FCFC0022104B00210620E0
:1027C000FFF770FD0420FFF7E1FD0E4900F04CF823
:1027D00001000020FFF780FE02B010BD0080004025
:1027E0003CB0004030B00040002F685900800240EB
:1027F000008C864700C00240001BB7004059730799
:10280000006CDC0240420F0001480421014B1847D4
:10281000D010002009250010124A936F9B0815D292
:102820009066D166002905D0FFE7FFE7FFE7516F0B
:10283000106F704704B580210906C2175140002867
:1028400000D0C8430AF0C0FE002104BDF0B5146EEC
:10285000556E576F166FFFF7E3FF1466556657679F
:102860001667F0BD000000D0114A936F9B0813D289
:1028700010665166002905D0FFE7FFE7FFE7516FBB
:10288000106F704704B5002801D00020C0430AF043
:102890009BFE002104BDC046F0B5146E556E576F07
:1028A000166FFFF7E5FF1466556657671667F0BDAC
:1028B000000000D094464A4A926F9208624601D2C4
:1028C00028E0C046F0B5464E346E756E776F366FB1
:1028D00000F020F89446424A14665566576716671A
:1028E0006246F0BD94463E4A926F9208624601D21B
:1028F00054E0C046F0B53A4E346E756E776F366F61
:1029000000F04CF89446364A1466556657671667C9
:102910006246F0BD002B24DB11D000293EDA00B561
:10292000C943404200D1013100F038F8C943404268
:1029300000D10131DB43524200D1013300BD002AF6
:10294000EBD1002801D1002905D00020C90FC9070B
:1029500001D1C043410800B50AF02EFE0022002339
:1029600000BD00B500290ADBDB43524200D1013330
:1029700000F014F8C943404200D1013100BDC94301
:10298000404200D10131DB43524200D1013300F01B
:1029900005F8DB43524200D1013300BD002923D1A9
:1029A000002B18D1002A0CD0BC460D4F38667A6631
:1029B00000210023FFE7FFE7FFE77A6F386F6746E4
:1029C0007047002801D00748010000B50AF0F4FD67
:1029D0000022002300BD02000B00002000217047F0
:1029E000000000D0FFFFFFFF002B00D0BFE0130C62
:1029F00028D1002AE7D080B4114F39667A66FFE704
:102A0000FFE730B4040C7B6F396F1B0423433B6634
:102A10007A66FFE7FFE7FFE7C04684B27B6F3D6F52
:102A20001B0423433B667A66FFE7FFE7C0460023AB
:102A30002C042D0C7A6F386F00196941B0BC7047B7
:102A4000000000D0F0B594460025140E01D112020A
:102A50000835140F01D112010435940F01D19200F1
:102A60000235D40F01D152000135D40B0134254F6A
:102A70007C66254C3C660E0C93B2FFE7FFE7FFE750
:102A80003C6F6643360C7703BE467343DF0B5B0433
:102A9000C01AB941130C7343DB18C91ACE08664338
:102AA000360CB64493B273431F0F1B01C01AB941D1
:102AB000130C73431F0B1B05C01AB941860D8F02FF
:102AC0003E436643360C092D24DB520A7243801ABA
:102AD0007703460A6643360C16235B1BDE40DF4055
:102AE000BF1964466643821B7046043506330100F5
:102AF000D940A840C01900D30131A24206D2002318
:102B0000F0BD0000000000D0FFFFFFFF121B0130EE
:102B1000F3D3F1E709277F1BFE406446A2B272435C
:102B2000801A00D20139220C7243130C1204821A4B
:102B300099410B007046043513370100F940A84055
:102B4000801900D30131002B02D1A2420AD2F0BD7C
:102B5000013000D30131121BFAD2013BF8D1A2425D
:102B600000D2F0BD013000D30131121BF7E7F0B500
:102B70001C0C00D080E00CB400251C0A04D11B0200
:102B8000160E3343120208351C0B04D11B01160F1D
:102B90003343120104359C0B04D19B00960F334341
:102BA00092000235DC0B02D192185B4101351C000A
:102BB000971864410134464F7C66464C3C660E0CC7
:102BC000FFE7FFE7FFE7C0463C6F6643360C77033D
:102BD000BE4697B27743C01B00D20139C01B00D25A
:102BE00001399FB27743C91BC91B170C77437E0479
:102BF000FF0B801BB941CE086643360C0C2D33DB2E
:102C0000B644120B1F053A431B0B97B27743C01B08
:102C100000D201399FB27743C91B170C77433E049A
:102C20003F0C801BB941860D8F023E436643292726
:102C30007F1BFE400C3D7746AF40BF1930BCA2B2AF
:102C4000ABB272437343801A9941220C7243130C46
:102C50001204801A994102000B000137001BA941A0
:102C6000F9D2781E0021F0BD0C277F1BFE4077466D
:102C70007F0BAF40FF19E0E700245D1C07D0144F25
:102C80007D663966FFE7FFE7FFE7FFE73C6F95B238
:102C90009EB265436643401BB141150C1E0C654353
:102CA000664336042F0C3E432D04401BB14199422C
:102CB00004D202000B0020000021F0BD01D190429F
:102CC000F7D3801A994101349942F2D3F6E7000014
:102CD000000000D0FFFFFFFF48404140484018B4CB
:102CE0001B4B5B68FC46019308BD04DF1B300010E2
:102CF00018B4174B1B68FC46019308BD00DF253054
:102D000000109446134A926F920809D2624618B492
:102D10000F4BDB68FC46019308BD0CDFDD32001071
:102D20000C4AF0B5146E556E576F166F6246FFF77A
:102D3000EEFF084A1466556657671667F0BD18B46B
:102D4000034B9B68FC46019308BD08DF81310010EE
:102D500080190020000000D0FFB550404240504094
:102D600059404B40594000E0FFB5154F4C00640DF1
:102D700003D0BC4204D10C0314D80020090D09056E
:102D80005C00640D03D0BC4204D11C030AD80022AD
:102D90001B0D1B0501264B4009D44B4003D58B422C
:102DA00000D18242FFBD9942FCD19042FFBD0B434E
:102DB000DB1803431343F5D0C9434918FFBD000096
:102DC000FF07000000B5FFF7CFFF01D0002000BDD6
:102DD000012000BD00B5FFF7C7FF804100BDC04620
:102DE00000B5FFF7C1FF01D9002000BD012000BDE3
:102DF00000B5FFF7B1FF01D9002000BD012000BDE3
:102E000000B5FFF7A9FF804100BD012040054A0041
:102E1000121804D85A00121801D800207047012057
:102E2000704700000021002805D17047C1174840B5
:102E3000401AFAD0C90713B5064B1B6898470CBC5B
:102E4000441CA2401005120B0349091B0905194334
:102E5000114310BDF82800201F04000010B54C00DD
:102E6000620D8023D218DB00D21A5B057E2A10DDAA
:102E70009E3A13DACC170903490819435242D1404C
:102E8000640001341532202A05DAD040084360433B
:102E900010BD002010BD0846604310BDC80FC0180B
:102EA000013810BD18B4044B5B6AFC46019308BDA1
:102EB00024DF8D34001000008019002018B4044B6A
:102EC000DB6DFC46019308BD5CDF99350010000006
:102ED00080190020C94211D300B5490049080022D9
:102EE00000F018F8002904D4002240428A4111461B
:102EF00000BD80210906002000BD000018B4044B6D
:102F0000DB6EFC46019308BD6CDF9B3400100000B3
:102F10008019002018B4044B9B6FFC46019308BD38
:102F200078DFB734001000008019002018B4044B7B
:102F3000DB6FFC46019308BD7CDF253500100000E7
:102F400080190020132370B51D78012D19D014DDD0
:102F50001F48FFF7D1FA06001E48FFF7CDFA1E4CB6
:102F600080223100200000F04BFC022D2DD01B48A8
:102F7000FFF7BAFA1A4B186070BD1A4B164CA364CF
:102F8000F5E7184B144C23606360A360E360236192
:102F90006361A361E36123626362A362E36223630B
:102FA0006363A363E36323646364A364E3642365EB
:102FB0006365A365E36523666366A366E3662367CB
:102FC0006367A367E367A364D1E7064BA364CEE717
:102FD0005344000053460000801900204C33000089
:102FE000F8280020E92F001007B5604601880A0A7A
:102FF0000230DF2AFAD1C9B2820804D3028840889D
:103000000004104300E00068014A5050039007BDDF
:10301000801900200FB403BC0CBCF0B50124E407F8
:10302000634000E0F0B50C0DCF0F661E3605891B1E
:10303000640503D3C943404200D30131640D03D07A
:10304000661CF60A07D0E41B00207F00791C890764
:103050008912803C24031D0DDF0F6E1E36059B1B5D
:103060006D0503D3DB43524200D301336D0D03D012
:103070006E1CF60A07D0ED1B00227F007B1C9B070D
:103080009B12803D2D032F1B661B58D4A446202E77
:1030900046DA20371400BC401D00BD40F2403341E9
:1030A0002A4380185941CB0F05D0C943C0430022A1
:1030B00064425041514162464D0D28D10D0D07D15A
:1030C00000281FD0241940414941013A0D0DF9D083
:1030D000640006D3013000D30131002C01D1400837
:1030E0004000013A0BD4941CE40A04D112051144A7
:1030F000DB071944F0BDD907204B194300E0D9077D
:103100000020F0BD0029DDD1002CDBD1F0BD013263
:10311000C6074008CD0728434908002EE1D0D9E76B
:103120003C2E29DA203E40371400BC4000D0012458
:10313000F24014431A00BB401C43D317ACE7AC4623
:10314000202F08DA20360400B4400D00B540F840C6
:1031500039412843A5E73C2F0CDA203F40360400D4
:10316000B44000D00124F84004430800B1400C43AF
:10317000C117EAE710001900002494E70000F07F6F
:10318000F0B50C0D661E3605891BE60A6405640D54
:1031900002D0651CED0A04D0002001210905803C05
:1031A0002403A4461C0D671E3F05DB1BE70A6405CC
:1031B000640D02D0651CED0A04D0002201231B051A
:1031C000803C24037740644497B484B296B274433D
:1031D000070C7E43150C6F4380B26843361802D348
:1031E000012000043F183004350C00197D4184464D
:1031F00088B29AB250430C0C62431F0C7C438EB2CF
:103200007E43921902D301263604A4191604170C22
:103210003618674101BC81B29AB25143040C624333
:103220001B0C5C4380B25843121802D301200004E7
:1032300024181004130C401863412D185E4100201F
:10324000474106BC88B293B258430C0C6343120C3E
:10325000544389B251435B1802D301210904641815
:1032600019041A0C091862416D1856410020474193
:1032700018BCF902720D1143F0026A0D1043ED0201
:103280000A0D03D16D1940414941013B124E9B1B70
:103290007600B3420ED26D0007D301300026714193
:1032A0006646354301D1400840001B05C918E407B4
:1032B0002144F0BD0BDA013306D1013004D10131D4
:1032C0004F0D01D04908F2E7E1070020F0BD0136BB
:1032D00031050020EBE70000FF030000F0B51C0DF6
:1032E000671E3F05DB1BE70A6405640D02D0661C00
:1032F000F60A04D0002201231B05803C2403D025BC
:103300002D060026F6432E661E096E66CE0FF619B0
:10331000B44649004F0D02D07E1CF60A03D00020AF
:103320000021403F3F033E1BB600B444013F7F05F0
:10333000C91B49082E6F013676089C02950D25435E
:103340007543ED137543AD1301356D10F603761B10
:103350000CB4CC02450D2C43A2B2B3B25A43270C95
:103360007B43350C6F43A4B26C431B1902D3012479
:1033700024043F191C041D0CA4187D4124196D411F
:10338000009A91B2ACB26143170C7C432B0C5F43A3
:1033900092B25A43A41802D301221204BF18220485
:1033A000230C52187B41019C6C431B19520ED9010E
:1033B0000A434401A01A81B2B2B2514303145A43E2
:1033C000360C734387B27743D617D21900277E4154
:1033D00036049B191704160C7F185E417316ED18FE
:1033E000F301002680337541A90F06D16400690AF4
:1033F000E8055B0A184309D22FE004229444803385
:103400007541A90AA8059B0A184326D340414941A2
:103410002404009A019B0D005543641B4343E41AA6
:1034200095B286B27543170C7E43030C5F4392B28C
:103430005A43B61802D301221204BF183204330CC7
:1034400052197B4152429C41002C02D4002201308F
:1034500051414008CA071043490802B06246D707E5
:103460009210084BD218084B9A4203D212058918C1
:10347000C919F0BD0020002A01DC3900F0BD01337C
:103480001905F5E7FD030000FE070000002200B566
:10349000203200F010F8080000BD002200B500F056
:1034A0000CF8CA179A4200D100BDD8430121C907C0
:1034B000414000BD00220B150AD410B5944600F01F
:1034C000A7F81414013400DA0021CB17144C20475C
:1034D0000020002170476244343A0CD40C2A07DAE9
:1034E00004009140904052422032D440214310BD0C
:1034F000D843D94310BD203207D40C4694405242E1
:1035000020321141D040204310BD0800C91720329D
:1035100003D452422032104110BD1800190010BDD2
:10352000D73400104A00520D144BD21A13DDFF2A73
:103530001EDAD205CB0FDB071A43C300400F090385
:10354000490A084310435B0001D301D001307047A2
:103550004308FBD2704702D0C80FC00770470A0368
:1035600012130132F8D1420F072AF5D1012200E0EF
:10357000FF22C80F00028018C005704780030000BA
:1035800000210A00002104E000210A00C11704E024
:103590000022002306E0C0460022CB1758405940C5
:1035A000C01A994130B5184CA21A002903D1010064
:1035B00010D00020203A4C1512D104D2013A001844
:1035C00049414C0DFAD3114CA24204D2120589187C
:1035D000DB07C91830BDD243520D00200021F5E7AA
:1035E00003D4013A00184941FBD50B324405C00A07
:1035F0004D052843C90A640003D00024604161419D
:10360000E1E7E0D34408F8E732040000FE070000D9
:103610000A0DCC0F531E1B05C91A520503D3C9430B
:10362000404200D30131520D03D0531CDB0A07D0B6
:10363000121B00206400611C89078912803A120362
:10364000014BD21A70470000FF030000514343436F
:10365000C9188C46110C83B24B4310B4040C61435F
:1036600092B280B2504362431C041B0C001910BC80
:1036700059411304120CC0185141614470470000B5
:1036800007B548404140484001E0C04607B5420008
:10369000120E03D0FF2A03D1420218D8C00DC00574
:1036A0004A00120E03D0FF2A03D14A020FD8C90DD7
:1036B000C9050122414005D4414001D5814207BDE1
:1036C000884207BD0143491801D0C043001807BD17
:1036D00000B5FFF7DBFF804100BDC04600B5FFF736
:1036E000D5FF01D9002000BD012000BD00B5FFF7C6
:1036F000C7FF804100BD01231B064200D21804D839
:103700004A00D21801D800207047012070470000FD
:10371000034BDB6FFC4618477CDFB5370010000019
:10372000801A0020132310B512481C78FEF7E4FE1F
:103730000100012C0AD003DD80220F4800F060F860
:103740000E48FEF7D1FE0E4B186010BD0A4C5422F5
:10375000200000F055F80B4B6365A365E365236615
:103760006366A366E36623676367A367E367236211
:10377000E361E5E753460000801A00204C33000067
:10378000F82800208937001007B5604601880A0A2A
:103790000230DF2AFAD1C9B2820804D302884088F5
:1037A0000004104300E00068014A5050039007BD38
:1037B000801A0020C30FDB0741000A0E07D0FF2A42
:1037C00008D00909054A89181943400770471900AC
:1037D000002070470249C918FAE7000000000038CD
:1037E0000000F07F01480421014B1847E010002041
:1037F00009250010014B1B6818470000E01000204D
:10380000014B5B6818470000E01000209A4200D28C
:10381000885470477047C046F8B55746DE464E4656
:103820004546E0B599460A9B07009A460D9B884697
:1038300093460B9C9B073BD10C9B9C423DD21E1B8D
:103840000B9415000C005E442A004B460135210004
:103850002020B847B542F7D1A0460B9C002C20D0C1
:10386000454636195346321B013C185D29004B462C
:10387000B847002CF6D12B00350098460D9B9B07CE
:103880000FD55B46EC1A0C9BA3420AD946469846D4
:103890002A004B46310020200134B8470135444509
:1038A000F6D32800F0BCBB46B246A946A046F8BDF8
:1038B00016001500002CD3D1E0E716001500002CEF
:1038C000CED1EEE7F0B54546DE4657464E46E0B56A
:1038D00085B09C4610AB1B78149F934698460F9C6E
:1038E000129E139DBB074CD4002D42D1B44248D246
:1038F00001233B4099460E9B013B9A46302304E04E
:10390000524601341355A64201D9202CF8D14B461A
:10391000002B00D183E00E9B013B99463023A5424A
:1039200005D82EE04A4601341355AC4229D0202C4C
:10393000F8D1FB060CD57B0554D4A64263D0A54232
:1039400061D0119B102B50D0022B57D0202C32D19C
:10395000202301930E9B5A460093039763460295DA
:10396000FFF75AFF05B0F0BCBB46B246A946A046D9
:10397000F0BD01233B40994601233B422AD1B4428A
:10398000B9D3FB061CD57B05DBD4002CD5D1119B0C
:10399000102B5BD0119B022B6BD0302301240E9A8D
:1039A00013704346002B10D17B073ED52B260E9A71
:1039B000631C1655CDE72300013430260E9AD654E9
:1039C000202CC5D04346002BEED02D260E9A631C2A
:1039D0001655BEE74346002B2FD0013DB44200D21E
:1039E00089E798E7119B102BB2D1BB0637D5202C65
:1039F000AED058230E9A13550134A7E7202CA7D038
:103A00002300013407E0631E012CC0D0119A102A54
:103A100031D0022AD1D162260E9AD65496E7FB06FF
:103A2000CED57B0500D488E78BE723003E0790D5F1
:103A300020260E9A013316558BE70C233B405A1E65
:103A40009341ED1AB44200D255E764E7BB060ED4A9
:103A500078230E9A0224137030235370A1E7202C90
:103A600000D175E778230E9A135501346EE7582379
:103A7000EFE76033EDE70E9AA61E91464E44BA0674
:103A800002D55822327098E77822327095E7C04606
:103A900010B5002800D110BD01F09CFCFBE7C0462A
:103AA000F0B55746DE464E464546E0B595B08346EE
:103AB0000F00924698461E9A1F9B10001900209EE8
:103AC000FFF7A3F9002800D0EAE11E981F99012210
:103AD000C54B5242FFF77EF9002800D014E11E9832
:103AE0001F990122C14B5242FFF78AF9002800D0EA
:103AF000E9E01E981F990022BD4BFFF781F90028CD
:103B000000D0C8E01E981F990022BA4BFFF762F957
:103B1000002800D0BFE01E981F9900220023FFF765
:103B200059F9002800D0E4E000230B93229B5B05A9
:103B300000D406260024302307E0172106AA01340A
:103B400052181355013E202C01D0092EF5D81E988D
:103B50001F99FFF783F9A84BF2009B181A685B685E
:103B6000050008920993FFF761F902000B001E9807
:103B70001F99FFF7B4F8089A099BFFF7E0F8069041
:103B80000791FFF78FF98146FFF74CF902000B0010
:103B900006980799FFF7A3F80022984B0690079123
:103BA000FFF72EF9002800D10DE101239C46E144E6
:103BB0004846FFF737F902000B0008980999FFF70C
:103BC0000FF9002802D0002399460135002E00D1BC
:103BD000D9E006954D46B94614E006AA9446172347
:103BE0000A216344280001341F19FEF73DFE3031DD
:103BF000397028000A21013EFEF736FE092D00D853
:103C000017E10500202CE8D14F46069D20240CAE7C
:103C100006AA17239446634499465B46B346069327
:103C20000FE04B4628000A210134E618FEF7F4FDA8
:103C30003031280031700A21FEF7EEFD051E00D15B
:103C4000E4E0202CEDD1069B5E469B460323229A9E
:103C50001340012B18D1219B002B15D00B9B002B5F
:103C600000D1FDE0219B013B2193202B0CD9302377
:103C7000219A07E0172006A9013409180B55944230
:103C800000D3CCE0202CF5D1229B01940393219BFF
:103C90000096029322E0229B52460493219B390016
:103CA000039358461E9B1F9C029600930194434623
:103CB00000F04AF90400200015B0F0BCBB46B24643
:103CC000A946A046F0BD229B5B070FD403224C4BB4
:103CD0002299019203912199009302914346524601
:103CE00039005846FFF798FD0400E4E70422454BED
:103CF000EEE71E9A1F9B00200021FEF7F0FF012334
:103D00001E901F910B9311E7229B54469B0711D1E4
:103D1000219B042B0ED9219B55469C465E46043CB4
:103D200064442A004346013539002020B047A542AB
:103D3000F7D1B346344D26002B1F99465B46A34668
:103D40001C003200E87843463900013DA0470136A7
:103D50004D45F6D123005C469B46229B04349B07CD
:103D6000A9D55346219AE31A9A42A4D95E46150072
:103D70002200434639002020B04753460134E31A5D
:103D80009D42F5D897E72800FFF750F802000B0096
:103D90001E981F99FEF7A3FF0022184B069007916B
:103DA000FFF718F80CAE002800D031E70698079905
:103DB0000022124BFFF724F8002800D028E7012347
:103DC00001359D4324E70022069807990B4BFFF726
:103DD00001F8002800D0F9E64B46002B5CD1012306
:103DE0009C46E144F2E6C046FFFFEFFFFFFFEF7F96
:103DF00065CDCD4165CDCDC118DD00100000E03F9F
:103E00008CD8001084D8001094D80010069B5E4611
:103E10009B460323229A1340012B00D181E0202CE2
:103E200000D131E70B9B002B27D02D2333550134D4
:103E30002AE74F46069D202C00D1E7E630223319B1
:103E400007E0172006A9013409180A55202C00D1D3
:103E5000DCE6A342F5D12E220CAE0134F254D7E6B3
:103E60000C23229A134257D0219B013B2193A3425A
:103E700000D9FCE6202C00D106E7229B5B0703D586
:103E80002B2333550134FFE6229B1B0700D4FBE6AE
:103E9000202333550134F7E6DB0700D496E69EE78E
:103EA000229B55469B0711D1219B032B0ED9219BA9
:103EB00054469C465E46033D654422004346013419
:103EC00039002020B047AC42F7D1B346B9465F462F
:103ED0001C4EEC1C2A00B078434649460135B847D1
:103EE000013EAC42F6D1229BBB464F469B0700D415
:103EF000E1E65346219AE31A9A4200D8DBE65E4691
:103F000015002200434639002020B04753460134B3
:103F1000E31AAB42F5D3CEE6219BA34200D9A6E635
:103F2000B2E6219B002B00D179E70B9B002B97D0A9
:103F3000219B013B21939C4200D298E6202C00D08B
:103F400073E7A1E690D80010F0B5DE4657464E461E
:103F50004546E0B599B081468B4692469846229AEE
:103F6000239B10001900FEF750FF002800D0CAE084
:103F7000229823990122824B5242FEF741FF0028EA
:103F800000D0C0E02298239901227E4B5242FEF7D6
:103F900021FF002800D0B6E02298239900220023B8
:103FA000FEF718FF002800D0C9E1229B239C08934C
:103FB0000994089809998023269ADB001A400D92EB
:103FC0008022269C1201144022000B94269C07009C
:103FD0000E001C4200D0ADE00B00034300D0D5E042
:103FE000002A00D00AE22200063324930223134061
:103FF0000C930223134200D002E2259B042B00D233
:104000000FE2043B0B93002304250A93002222981D
:1040100023990023FEF7DEFE002800D003E25A4B6E
:10402000269A134004930B9B0393249B0293089BB3
:10403000099C009301945946434652464846FFF76F
:104040002FFD02002020269B1F27034059424B4191
:104050005B421840531C0893594643464530C847B5
:104060000A9AD317D4185C40D30F0A936B1E0B9394
:1040700008AB9C460025674401E0202D0FD02000AE
:104080000A21FEF7F1FB01357E1930313170200035
:104090000A21FEF7E9FB26000400092EEDD80523CE
:1040A00006930B9B59460593002304930A3303930D
:1040B0000A9B4846029310AB0093089A4346019529
:1040C000FFF700FC0C9B002B2DD05346C41A259BF8
:1040D000A34228D94D465F4681461E00534639000B
:1040E0001A19202043460134A847A642F6D8534661
:1040F00048462599C21A01320023914200D386E135
:10410000013018180FE0269B0493259B0393249BF2
:104110000293229B239C00930194434652465946A6
:104120004846FFF7BDFC19B0F0BCBB46B246A946F5
:10413000A046F0BD01432BD10B9B2200002B00D1E8
:1041400054E700230A93249B0A9A0024934200DD3B
:1041500085E12298239900220023FEF73BFE0028E8
:1041600000D035E1269B084A02941A408023DB00E8
:1041700013430493259B0393089B099CCBE7C046FC
:10418000FFFFEF7FFFFFEFFFFFF7FFFF0623249303
:10419000B44B70009C46400D6044FEF747FEB24AA7
:1041A000B24BFEF7CCFDB24AB24BFEF7A1FD36038F
:1041B000B14B360B334304000D00380019000022C8
:1041C000AE4BFEF78CFDAE4AAE4BFEF7B8FD0200DB
:1041D0000B0020002900FEF78BFDFEF73FFE0A9042
:1041E000FEF724FEA84AA94B04000D00FEF7A7FD28
:1041F0000022A74BFEF77CFDFEF730FEA54A060025
:10420000A54B20002900FEF79AFD040030000D00A8
:104210000C96FEF70BFEA14AA14BFEF790FD0200A3
:104220000B0020002900FEF75AFD02000B000600DB
:104230000F00FEF784FD320004000D003B0030004B
:104240003900FEF755FD00220E900F91954B20008E
:104250002900FEF756FD0022934BFEF749FD0200B0
:104260000B0020002900FEF74CFD00228F4BFEF7CB
:104270003FFD02000B0020002900FEF742FD0D006B
:104280008021040032003B000020C905FEF727FD15
:1042900002000B0020002900FEF72AFD02000B009F
:1042A0000E980F99FEF72DFD0022734BFEF720FDAF
:1042B0007F4B0C9C9C46644400222305FEF73FFD87
:1042C00006000F0002000B0008980999FEF782FD16
:1042D00000280AD00A9B3000013B39000A930022D3
:1042E000714BFEF70EFD06000F000A9A3300633291
:1042F0003900C62A12D802222698042510400B9AAB
:104300000C90002A25D1259B042B05D9002800D02C
:10431000A1E0259B043B0B93042541E00222269853
:1043200010400B9A0C90002A12D1259B052B76D9B0
:10433000002872D1259B0525053B0B9334E0802294
:1043400012069446229B0893239B6344099330E60C
:1043500005250B4300D1F6E608980999554A564BB6
:10436000FEF746FD002808D0089809990022534B13
:10437000FEF730FD002800D0E5E6249B002B1CD082
:104380000D9B002B19D0249B013B2493259BAB4212
:1043900004D90C9B002B5AD002230C9300230B93BF
:1043A0000A9B002B00D131E60898099932003B00A6
:1043B000FEF7A7FC0890099128E6259BAB42EDD9B2
:1043C0000C9B002B43D000230B9302330C93E7E7A5
:1043D0008020269B3A4A00061A4080238446029495
:1043E000089C099D2900DB0013430493259B61442D
:1043F000220003930B00009201938EE60524A8E6A9
:1044000000230B930A93023304250C93FEE55346D5
:104410008C46013B63441B1A72E602230C9305256C
:10442000C2E70423EDE58020089E099F00063900BD
:104430008446269A224B6144134004930B9B32001E
:104440000393249B02930B0000920193F3E5259BB9
:104450005B1B0B93A4E7022304250C93A0E79C1A93
:10446000013C76E601FCFFFFFB799F501344D33FEC
:10447000B3C8608B288AC63F0000F03F0000F83FB9
:1044800061436F63A787D23F71A379094F930A40B5
:104490000000E03F1655B5BBB16B0240EF39FAFEA4
:1044A000422EE63F00002C4000002440000018404F
:1044B000FF0300002D431CEBE2361A3F80842E419F
:1044C000FFF7FFFFF0B5DE4657464E464546E0B5DE
:1044D000A5B01E002E9B92460C93CD4ACD4B804634
:1044E0008B461A60002900D1EAE100233078994612
:1044F000002800D1ECE1C84B4C460B93C74B454616
:1045000057460E930AE0631C984622003B0059462A
:10451000A84744463078002800D187E00136252896
:10452000F1D108239A46043B9946023B9846013B49
:1045300000229C460D943078711C0300203BDBB2B6
:10454000102B03D80B9C9B00E3589F460300303B85
:1045500089460D9C092B3AD9002398462A2800D178
:10456000C1E000239A462E284BD00300683BDBB203
:10457000122B1ED80E999B00CB589F4663460E0007
:104580001A43D8E743460E001A43D4E74B460E00C1
:104590001A43D0E710230E001A43CCE753460E000F
:1045A0001A43C8E780235B001A43FF3B9C467078A0
:1045B000E1444E4667284FD82428A4D90300253B60
:1045C000DBB2422B9FD896499B00CB589F460023D5
:1045D00094461E0000E00131B3009B195B001E18D9
:1045E0000878303E0300303B092BF4D901236246A2
:1045F00089469C460023B0469A460E00E1442E2888
:10460000B3D13021802049428C46C00002437078EB
:104610004B4684446146092900D86CE12A2800D120
:104620007AE101239C464E46E1449EE7A146A84616
:10463000BA46CA4503D801235B42534499465346C0
:104640004A4659460020C047200025B0F0BCBB4672
:10465000B246A946A046F0BD0300693BDBB20D930C
:104660000F2B00D94FE7012199408C466D498946AF
:1046700061464B4619400F91634649460B4200D0B4
:1046800028E10D9B0A2B3AD0072B00D03BE70C9B6F
:10469000190008C98846002B00D14BE121200243B4
:1046A000914614A98C461F220F2162448C46514624
:1046B0000D950C91A24615000F9902E020290CD00F
:1046C000130064461C4020003730092C00D80738FE
:1046D000013168541A090F2BF0D80C9B54460D9DDC
:1046E0009A460F9133E10C9B02CB8846002947DBA9
:1046F0000C9301239C4670784E46E14431E70C9BB5
:1047000002CB14935346002B00D138E19C46087825
:104710000B000C908C44002801D100F098FC8946D5
:104720006146944603E05A780133002A01D08B4257
:10473000F9D1494662465B1A0C900F93530500D598
:1047400020E10223180010400D90134200D1CBE36A
:104750000D930B1BB1469A465E460C9822003B0017
:104760003100A84753460134185D0028F6D1B346FE
:104770004E460D9B002B00D0C7E1149B0C93C9E65D
:104780000C9301239C46283849420243884670789E
:104790004E46E144E5E670786C2800D17FE1802345
:1047A0005B001A43FF3B9C46E14402E780239B00E9
:1047B0001A4301239C467078E144FAE67078682831
:1047C00000D173E180231A437F3B9C46E144F0E62D
:1047D000672800D103E1472800D15AE1452800D1DC
:1047E0005AE10492072142460C9B0392073352463A
:1047F0008B43190002920CC92800009201930C917E
:1048000022003B005946FFF79FFB040082E6C046AA
:10481000C54400102428002078DB0010BCDB001009
:1048200008DC001041900000462800D1DBE0049233
:10483000072142460C9B0392073352468B431900D3
:1048400002920CC92800009201930C9122003B00B7
:104850005946FFF725F904005CE6631C98462200E0
:104860003B0059462520A847444653E60C9B043399
:104870000D93631C9946920700D422E10C9B220001
:10488000187859463B00A84743464444012B00D8BA
:1048900085E23300B8462E005F4625004C46994617
:1048A00022004346013439002020B047AC42F7D102
:1048B0002C00BB46350047464E460D9B0C9329E61F
:1048C000DB4B3078984600239946002800D012E64A
:1048D0000024AEE66F2800D188E000D80BE3102357
:1048E000782800D1CFE09A430A239C4600230F93F7
:1048F0000A330D9380E05646B1008919490001330F
:104900000E181878303E010030390929F4D9B24622
:104910001E000133994628E60C9B023602CB8A46DC
:10492000C9435046C917084082460C933078731C1F
:1049300099461AE610231000984311331843814614
:1049400080201300C0000340024200D1A9E64B467C
:1049500006930823059353460493102303930023DF
:1049600002930F9B220001931CAB009359463B001E
:104970002800FEF7A7FF434604000C93CAE5012375
:104980005B42C3E60F9B534501D953460F93022365
:10499000180010400D90134200D1B7E10D93D1469D
:1049A0000B1B9A463300A1442E0022004D460C9862
:1049B000B9465F469B4608E04B463900541CB04759
:1049C0005346185D002877D022009542F4D15B460B
:1049D000BB464F46A94635004C461E00C9E680231B
:1049E0001B011A43FDE620231A4320E708239C46B7
:1049F00000230F9308330D9380231100DB0019402F
:104A00001A4200D116E10D239A43100080230200C0
:104A10009B001A401492184200D0C2E18023020089
:104A20005B001A4091460C9A04320F92184200D053
:104A3000B7E2430600D59FE1030600D419E30C9BBF
:104A40001B880993002B00D0FCE110339843002908
:104A500000D1F7E10023994643460593534604935A
:104A60000D9B069003930023D2E0582808D06228BB
:104A700067D102239C4600230F9302330D93BBE7BB
:104A800020231A43103B9C4600230F9310330D93B1
:104A9000B2E780231B011A4320231A43A1E6C02357
:104AA0009B001A43F31C9946B07882E5C0231A4351
:104AB000F31C9946B0787CE535005E46BB464F4610
:104AC00057E64346012B00D863E1631E43449A46F0
:104AD0003300B9462E005F4655469B46A24622004B
:104AE0004B46013439002020B047AC42F7D13500A5
:104AF0005E46BB464F46A14654460C9B4A46187834
:104B000059463B004444A847D7E6A1460F9B984529
:104B100000D832E64444E41A3300B8462E005F461B
:104B200025004C4699462200434601343900202096
:104B3000B047AC42F7D12C00BB46350047464E4645
:104B40001BE680231000DB0018401A4200D10FE161
:104B5000112118008A430D920D9A802311009B00A9
:104B600019408C461A4269D1802311005B0019401C
:104B700089460C9904310F911A4200D0CAE1130002
:104B80005B0600D5F0E013001B0600D459E20C9B35
:104B900000229B5ED9175A184A4092B2D90F0C9145
:104BA000002B00D1F9E1100014AA944642461F23BD
:104BB000149252466344A84616944D460400B946E2
:104BC000B2461F00159201E0202D0FD020000A21CF
:104BD000FDF74AFE01357E193031317020000A217F
:104BE000FDF742FE26000400092EEDD8149B4F4627
:104BF000A94645469846159B56469A46169C0D9BD7
:104C0000069343460593534604930A2303930C9B50
:104C100002934B4601931CAB2200009359463B0084
:104C20002800FEF74FFE0F9B04000C9372E4C04671
:104C3000153800100C239A431000E7E607220C9B5E
:104C400007339343013294469C4462460C920CCB4A
:104C5000D90F0F911100194300D191E0D917139189
:104C60001291514010911399594011911098119936
:104C7000129A139B801A99411090119114AA002343
:104C8000944642469946149252461F336344A846BE
:104C9000B24616944E46109C119DB94615921F00BF
:104CA00001E0202E10D0200029000A220023FDF769
:104CB00019FE013630322B00BA550D0022000400D7
:104CC000002BEED1092AECD8149B1094119545467F
:104CD0009846159B4F46B14656469A46169C0D9BE4
:104CE000069343460593534604930A2303930F9B6D
:104CF00002934B4601931CAB2200009359463B00A4
:104D00002800FEF7DFFD0400FFF704FC0F9B984529
:104D100000D8C1E18023DB000D9343460F9A1B1995
:104D20009B1A994633002E004D46B9465F469B4676
:104D30000C9122004B46013439002020B047AC4290
:104D4000F7D143460C9901330F930B7835000C9340
:104D50005E46BB464F46002B00D10EE50D9B002B57
:104D600000D1F6E4002319E60C9B1B781A0015E726
:104D700010239A430D92EFE60C9B1B78099361E692
:104D8000002399460028AAD10022002310921193F3
:104D900074E70C9B2200187859463B00A8474C4604
:104DA0008BE50C9AFA3BFF3B07329A430133994655
:104DB00091444B460C931368526815921A4306D1DE
:104DC0001032904300220992002900D081E0612234
:104DD000810600D54122D2B20A9214AA91460A9ABB
:104DE00000210A3A149242461792524618925A46A5
:104DF0000991B3461F311E000F9B4944BA461994CE
:104E00001A950024674698468946159D16901B9270
:104E10000AE03032D2B24B4601341A55A8454AD086
:104E2000202C4AD006000D003A0000233000290053
:104E3000FDF758FDD2B2092AEBD9149B9C46624477
:104E4000D2B2E8E76123820600D54123DBB20A3BF8
:104E50000C93434614A91F228C4615935346624473
:104E6000A046B2464C461797A9461700099D0D9ECD
:104E70001490169308E03033DBB201343B55B54251
:104E80000ED3202C0CD0050031002800FDF7ECFCDF
:104E9000CBB20929EFD90C9A94466344DBB2ECE714
:104EA000159B4D46A14644469846169B5646149877
:104EB0009A46179FD0E5B742B2D9179B57469846F6
:104EC000189B5E469A461B9B09949B461698199C14
:104ED0001A9D43460593534604930D9B06900393F6
:104EE00000230293099B05E70F9B984500D914E71F
:104EF00001330F932DE41023110099430D9169287C
:104F000000D0BAE080231000DB0018401A4200D124
:104F100022E61DE60C9B1B68DA0F1100002B00D166
:104F20008CE0DA179818504014AA914642461F2385
:104F3000149252464B44A046A94616970400654673
:104F4000B2461F000C91159201E0202D0FD02000D9
:104F50000A21FDF789FC01357E19303131702000BE
:104F60000A21FDF781FC26000400092EEDD8149BD0
:104F7000444698460C9BAC461900159B56464D4638
:104F80009A46169F0D9B02910693434605935346FE
:104F900004930A23039363463CE6002800D02EE6E0
:104FA00002E60C9B1B689946002B03D110339843F3
:104FB000002938D16123820600D54123DBB20A3BA8
:104FC0000C9343461693534614A91F228C461793FD
:104FD0002B006244A0464D46B246189799461700EA
:104FE000149C0D9E159008E03033DBB201343B5524
:104FF000B5420ED3202C0CD0050031002800FDF75F
:1050000033FCCBB20929EFD90C9A94466344DBB246
:10501000ECE7169B149444469846179B56464D461B
:105020009A461598189F43460593534604930D9B43
:105030000690039300230293149BEBE50028A1D173
:1050400072E70C9B1B68D9175A184A40A6E58023C3
:105050001000DB0018409C460F901A420FD002202F
:10506000030013400F93104219D00023A1460F9361
:105070004CE50C9B1B680993E4E40A0034E402232A
:10508000180010400D90134200D03EE54346002B1F
:1050900000D042E6FFF771FB01330F937FE46346D4
:1050A0000D93F3E70CB430B585B008AC08CC064DD1
:1050B0000A000094010028000394FFF703FA05B0EA
:1050C00030BC08BC02B018470D3800100FB430B522
:1050D0000C4985B008AA08CA0D680392002D0CD0AF
:1050E00000920122084C5242200002A9A847012048
:1050F00005B030BC08BC04B01847180000F0B4F983
:105100000020F5E724280020913A001010B5094A44
:105110000300146884B0002C08D0012200910648D6
:10512000524203A9A047012004B010BD00F09CF931
:105130000020F9E724280020913A001000BEFDE786
:10514000094A03001068002805D00849C3188B429B
:1051500007D81360704706480449C31810608B4293
:10516000F7D901204042F5E71C240020000004206C
:105170003829002010B5FFF7E1FFC04630B50D001B
:1051800083B01900002A0BD0074B084C0192009302
:1051900002002B002000FFF799FF0120FFF7CEFF50
:1051A000034B1A00F1E7C0469CD80010ACD80010A1
:1051B00020D7001070B5FDF7F7F9074D074EB5423F
:1051C00009D20024013E761BB60808CD984723007B
:1051D0000134B342F9D170BD94D600109CD60010B2
:1051E000030010B5080011001B68984710BDC046A9
:1051F000F0B5C64600B5437D07000C001600002B35
:1052000046D0002A17DD0B780A2B24D000239846BD
:10521000012E13D001252900635C01350A2B26D00D
:10522000B542F8D1464509DCA419013C23780D3B71
:105230005A4253413B7580BCB846F0BD4346E01826
:10524000A419F11A013C3B68984723780D3B5A4258
:1052500053413B75EFE7037D002BD7D102210F4867
:105260003B689847012EDFD001239846D2E7631EA2
:105270005B5C0D2BD4D0884504DA4346C91AE0188C
:105280003B689847022105483B68A8469847C7E70E
:105290000368110020009847CDE7C04668DD001084
:1052A000F0B54546DE464E465746E0B583B09146DA
:1052B0001C0080460D00FCF733FE0023304A121814
:1052C0004B41002B02DA01222E4B52422E4908009C
:1052D0008A4608F0A1F907006B1C03D1404606F08E
:1052E000A7FD0500002C27D0284E294B1C68002C58
:1052F00018D04B46002B21D1264B994602E0246959
:10530000002C0FD02368002BF9D04B461B68002BD4
:1053100001D09C42F3D120002A004146B0472469C5
:10532000002CEFD1002F26D1280003B0F0BCBB46E3
:10533000B246A946A046F0BD174ED6E7154B994692
:105340000A239B4602E02469002CEBD02368002B43
:10535000F9D04B461B68002B01D0A342F3D12A00A1
:1053600041462000B0476B465A462000DA71D91DED
:105370000122B047E7E7504608F00EF9D4E7C046EF
:1053800040420F00FFFFFF7FF0170020F151001097
:105390000C24002018240020E15100100A4A136850
:1053A000002B05D10CE01A001B691032002B07D02E
:1053B0008342F8D1002902D1186910601961704741
:1053C0000029FCD01060FAE70C24002010B500F092
:1053D0007FFA10BDF0B5CE46474680B583B06B4628
:1053E0000600DD1D2870FCF79BFD0023194A1218EA
:1053F0004B41002B02DA0122174B52421749080099
:10540000884608F009F9164B81461C68002C14D018
:10541000144F02E02469002C0FD02368002BF9D030
:105420003B68002B01D09C42F4D1200001222900CE
:10543000FFF7DEFE2469002CEFD14B46002B05D18F
:10544000300003B0C0BCB946B046F0BD404608F0DD
:10545000A3F8F5E740420F00FFFFFF7FF0170020A1
:105460000C2400201824002070B5040006F0E0FC95
:1054700001230100050001222000FFF711FF084B66
:105480001C68002C06D06368002B05D0984724695F
:10549000002CF8D1280070BD2469002CF3D1F9E765
:1054A0000C2400207047C0460022014B1A70704740
:1054B000322900204B790020FF2B0BD18B79002B58
:1054C00008D1CB79012B05D1082A03D9024B8A7860
:1054D00009301A707047C0463229002001207047F9
:1054E00010B5012913D112495379107909781B029B
:1054F00003430020994200D010BD5378012B08D0FF
:10550000022BF9D1642200210020FCF797FF012033
:10551000F2E7D37891781B021943480ADB0501D4DE
:10552000012040427F238A05D20F1940FDF70EF873
:10553000322900200048704734DE001070B50500A5
:1055400014000120012909D153780020012B05D135
:10555000637912791B021343072B00D070BD210021
:105560002800024A9F3301F055FAF7E78CDD00105E
:1055700001230370004870476CDD00104B780A78F7
:105580001B0213438A7810B512041A43CB781B060A
:1055900013439622D200934200D010BD0022012076
:1055A00011004042FCF7D2FF024B1860024B196019
:1055B0007047C046A8230020AC23002010B5024B42
:1055C0001878FBF717FE10BD34290020154B70B575
:1055D0001A68002A22D0EFF3108172B610680028F2
:1055E000FCD0BFF35F8F00200F4A596010701B681A
:1055F000BFF35F8F186081F31088002400250B4EE5
:105600003078FBF7EBFD002804D1002400252900A9
:10561000200070BD3078FBF7EDFDF8E7FA24002597
:10562000A400ECE748280020352900203429002078
:1056300070B5040000200E0001F00AFB002834D0F1
:10564000002001F01BFB00282FD0FCF769FC002391
:10565000174A12184B41002B16DB164D280007F095
:10566000DBFF002821D0002001F0F2FA00280FD142
:1056700001200021404200F001FD03246442280083
:1056800007F08AFF200070BD01220B4B5242E4E775
:10569000002001F0F3FA0028EAD0210032000020B7
:1056A00001F0F6FA041EEAD1E7E703246442E9E7D1
:1056B00040420F0000290020FFFFFF7F10B5FCF7DC
:1056C0002FFC00230D4A12184B41002B02DA012255
:1056D0000B4B52420B4C200007F09EFF00280CD0D1
:1056E00001200021404200F0C9FC002001F014FB21
:1056F0000028F5D1200007F04FFF10BD40420F00F9
:10570000FFFFFF7F00290020F8B5DE46574680B531
:1057100005000C00FCF704FC0023364A12184B412C
:10572000002B02DA0122344B5242344908008A46E7
:1057300007F072FF002803D1C0BCBB46B246F8BDDB
:10574000002001F085FA00284AD00026002C43DD15
:105750002B4B9B4614E0A919002001F017FB070012
:1057600001200021404200F089FC002001F0D4FA21
:10577000FCF7D6FB224BF61918605960B4422BDDBA
:10578000002001F023FBA71B0200B84200DD3A0015
:10579000002AE0D101200021404200F06FFC0020EF
:1057A00001F0BAFA002001F053FA002814D00020CA
:1057B00001F00CFB0028E1D1FCF7B2FB5B460F00C7
:1057C0001A685B68002184460E4812184B419F42BC
:1057D00002D8D3D19445D1D9504607F0DDFEABE7CE
:1057E00000200021064B18605960504607F0D4FE97
:1057F000A2E7C04640420F00FFFFFF7F00290020C4
:105800007819002020A1070030B52A4C85B000216E
:10581000200007F0E1FE00281CD1274B1A68002A5F
:1058200016D0EFF3108172B610680028FCD0BFF3D9
:105830005F8F01242148596002781B68D2B204703E
:10584000BFF35F8F0020186081F31088002A17D003
:1058500005B030BD01200021404200F00FFC0020C7
:1058600001F00CFA0500200007F096FE002DEFD0A5
:10587000134B1B68002BEBD0124A10689847E7E7E0
:10588000FCF7C2F80400FCF74BFBFA22002392005D
:1058900012184B41002B02DA01220B4B524201211C
:1058A000029100210191094920000091FCF7B0F814
:1058B000CEE7C046002900204828002035290020D6
:1058C000A8230020AC230020FFFFFF7FCD55001050
:1058D000D02310B51B0684B01C68FCF795F8FCF7C4
:1058E00091F9A04202D0002004B010BD294B002144
:1058F00000201B7801F05EFD27480368002B45D08F
:105900000120FBF70FFEFF23244C2549207018408F
:10591000FBF78AFC20780121FBF74EFC0520FBF702
:1059200071FC002824D1082200211E48FDF762FFE7
:10593000FCF76AF80400FCF7F3FAFA22002392005D
:1059400012184B41002B02DA0122174B524201215F
:10595000029100210191154920000091FCF758F8AF
:105960000028C0DB12480121FFF718FD0120BBE72A
:105970000120FBF7EFFB0B4B01001800FBF734FE97
:10598000002205200B49FBF779FCEBE7FBF710FE43
:10599000B6E7C046E8E500100029002034290020C1
:1059A0000958001048280020FFFFFF7FCD55001048
:1059B000F0100020BD55001000487047D0DE0010E8
:1059C000004870477CDE001010B5040017480378CB
:1059D000002B20D0002C06D1154B16484380063BE7
:1059E000FF3B038010BD052C1DD8134BA400E058CD
:1059F00012490123013804E001330A800231142BDB
:105A00000DD0C25C002AF7D1C022DBB25B0092004D
:105A100008481343E5E7112100F01AF8DAE7CA2332
:105A200004489B00DDE70020DCE7C0461029002089
:105A300009040000E423002064DE0010E6230020B7
:105A400010B5024800F0D8F810BDC046602800200C
:105A500030B54B1E012900D1A7E0664A11780D0927
:105A60002C0030349F2900D9A2E00470012B00D112
:105A7000BEE00F21147821400C003034092900D9F0
:105A800098E04470022B00D1B2E054782509290037
:105A900030319F2C00D990E08170032B00D1A7E01A
:105AA0000F2121400C003034092900D987E0C4704F
:105AB000042B00D19CE094782509290030319F2CDB
:105AC00000D97FE00171052B00D191E00F21214029
:105AD0000C003034092900D976E04471062B00D13E
